:020000040800F2
:10000000E00600207D1A0008950300089703000809
:100010009B0300089F030008A303000800000000E2
:10002000000000000000000000000000A70300081E
:10003000A903000800000000AB030008AD0300089E
:10004000971A0008971A0008971A0008971A0008CC
:10005000971A0008971A000861070008971A000805
:10006000971A0008971A0008971A0008971A0008AC
:10007000971A0008971A0008971A0008971A00089C
:10008000971A0008971A0008971A0008971A00088C
:10009000971A0008971A0008971A00089F07000887
:1000A000971A0008971A0008971A0008971A00086C
:1000B000551100088D0E00080F100008971A00084F
:1000C000971A0008971A0008971A0008971A00084C
:1000D000971A00088714000823160008FF17000865
:1000E000C9070008971A0008971A0008971A00080D
:1000F000971A0008971A0008971A0008971A00081C
:10010000971A0008971A000811120008971A000899
:10011000F5190008971A0008971A0008971A00089E
:10012000971A0008971A0008971A0008971A0008EB
:1001300000F002F800F03AF80AA090E8000C8244BF
:100140008344AAF10107DA4501D100F02FF8AFF29C
:10015000090EBAE80F0013F0010F18BFFB1A43F0A5
:1001600001031847A03A0000C03A0000103A24BF2B
:1001700078C878C1FAD8520724BF30C830C144BF0C
:1001800004680C607047000000230024002500264E
:10019000103A28BF78C1FBD8520728BF30C148BFEA
:1001A0000B6070471FB51FBD10B510BD03F0E8FA16
:1001B0001146FFF7F7FF00F009F803F01AFB03B44C
:1001C000FFF7F2FF03BC01F003F9000000206249D1
:1001D0000870624908706249087001F08FF84FF4A6
:1001E000A06002F0EFF94FF4165001F000F94FF45F
:1001F000E13001F0AFF94FF4165001F095FA4FF4E9
:10020000165001F087FB00F041FA00F0C1F900F050
:10021000B3FE00F0EFFD40F2CF2141F6573000F081
:100220000DFE40F2CF2141F6573000F0DBFE91E0A9
:100230004A480078D0B94A480078B8B900F0E6FAE0
:1002400048A003F0C9F900204A49087000BF43489C
:10025000007818B9424800780028F8D000F016FC61
:1002600000203E49087001203D4908703B48007855
:10027000A0B93B480078012810D100F067FB00BF0F
:100280003648007818B9364800780128F8D000F0D0
:10029000FDFB012031490870314908702F48007872
:1002A00001280BD12E480078012807D100F00EFC60
:1002B00001202A4908700020294908702748007841
:1002C000012847D126480078002843D13EE000F0BD
:1002D00014FE2949086000F0D1FE28490860284929
:1002E0002548006803F05DFC07D2254923480068D3
:1002F00003F057FC01D200F0FFFB22491E480068C2
:1003000003F0D0FB01D200F017FC1F491B48006826
:1003100003F0C8FB01D200F04FFC1C4916480068EE
:1003200003F0C0FB12D81A491348006803F039FCE7
:100330000CD815491148006803F0B4FB06D800F04A
:100340005BFC05480078401C0349087002480078AF
:100350000428BCDB6CE70000000000200100002046
:1003600002000020537461727420766973696F6EA5
:100370000D0A00002C000020200000202800002092
:100380000000C8430000C842000048430080AF435B
:1003900000006C43704700BFFEE700BFFEE700BFF0
:1003A000FEE700BFFEE770477047704770470000E8
:1003B0000CB50020019000906C48006840F480303B
:1003C0006A49086000BF6948006800F40030009086
:1003D0000198401C0190009818B90198B0F5A06FE1
:1003E000F1D16248006800F4003010B101200090A3
:1003F00001E0002000900098012843D15C4800688B
:1004000040F010005A4908600846006820F00300D8
:1004100008600846006840F00200086053484068E1
:10042000524948600846406848600846406840F4C1
:10043000806048600846406820F47C1048600846A8
:10044000406840F4E81048600846006840F080705A
:10045000086000BF4548006800F000700028F9D02F
:100460004248406820F00300404948600846406820
:1004700040F00200486000BF3C48406800F00C00BB
:100480000828F9D10CBD10B5FFF792FF10BD10B5CB
:100490003648006840F0010034490860084640686A
:1004A00034490840314948600846006832490840EC
:1004B0002E4908600846006820F48020086008463D
:1004C000406820F4FE0048604FF41F008860FFF78A
:1004D000DAFF4FF000602949086010BD10B5002117
:1004E00000200022214B5B6803F00C0121B104299C
:1004F00006D0082928D107E0214B224C236027E0B1
:100500001F4B204C236023E0184B5B6803F47010F2
:10051000164B5B6803F48032022303EB904022B950
:10052000194B4343174C23600DE0104B5B6803F4F9
:10053000003323B1144B4343124C236003E0104BB0
:100540004343104C236003E00D4B0E4C236000BF6F
:1005500000BF064B5B68C3F303130C4CE15C094B13
:100560001B68CB40074C236010BD00000010024008
:10057000002002400000FFF8FFFFF6FE08ED00E05B
:1005800000127A000400002000093D00080000204D
:1005900008B50121142001F0ADFD0121374801F01B
:1005A000BEFB4FF40040ADF8000048208DF803007A
:1005B0006946334801F0E2FA2020ADF800004820F7
:1005C0008DF8030069462F4801F0D8FA0120ADF8F4
:1005D000000028208DF803006946294801F0CEFA72
:1005E00008BD10B5044614B10120274908702648FB
:1005F000007868B32021234801F053FB58B14FF431
:1006000000411F4801F04DFB28B101211C4801F0B9
:1006100048FB01281CD10A2000F0ADFE00201A4939
:1006200008702021174801F03CFB08B9012010BDDB
:100630004FF40041124801F034FB08B90220F6E7FC
:1006400001210F4801F02DFB012815D10320EEE711
:1006500020210C4801F025FB01280DD1C1030848D9
:1006600001F01FFB012807D10121054801F019FB0A
:1006700010B90120044908700020D8E700023000BA
:100680000008014000100140180000200EB50121B3
:10069000084601F02FFDFFF77BFF0521022001F046
:1006A00083FB2020019000208DF808000C208DF89D
:1006B000090001208DF80A0001A801F0FFFF0F21B9
:1006C000002001F071FB4FF40040019000208DF8F4
:1006D00008000C208DF8090001208DF80A0001A8FF
:1006E00001F0ECFF0021084601F05EFB01200190C3
:1006F00000208DF8080008208DF8090001208DF8F1
:100700000A0001A801F0DAFF06208DF8000002209F
:100710008DF801008DF8020001208DF80300684675
:1007200001F055FF17208DF8000002208DF8010020
:1007300001208DF802008DF80300684601F047FFA4
:1007400028208DF8000002208DF8010000208DF88F
:10075000020001208DF80300684601F038FF0EBD4D
:1007600010B50A2000F007FE0121234801F099FA94
:10077000012810D12148006808B9012000E00020BC
:100780001E4908601E48D0F8880108B9012000E021
:1007900000201C490860012002F007F810BD10B5C8
:1007A0000A2000F0E8FD2021174801F07AFA38B954
:1007B0001248006808B9012000E000200F490860D5
:1007C000202001F0F2FF10BD10B50A2000F0D3FD8B
:1007D0004FF40041084801F064FA38B9094800684C
:1007E00008B9012000E00020064908604FF40040ED
:1007F00001F0DBFF10BD000000080140A001214214
:1008000000802242888122420010014010B54FF43E
:10081000FA721146012000F03CFA4FF4FA721146C8
:10082000022000F036FA4FF4FA721146032000F06D
:1008300030FA4FF4FA721146042000F02AFA4FF40D
:10084000FA721146052000F024FA10BD10B54FF4DD
:10085000FA721146012000F01CFA4FF4FA721146A8
:10086000022000F016FA4FF4FA721146032000F04D
:1008700010FA4FF4FA721146042000F00AFA4FF40D
:10088000FA721146052000F004FA10BD10B54FF4BD
:10089000FA721146012000F0FCF94FF4FA72114689
:1008A000022000F0F6F94FF4FA721146032000F02E
:1008B000F0F94FF4FA721146042000F0EAF94FF40F
:1008C000FA721146052000F0E4F910BD10B54FF49E
:1008D000FA721146012000F0DCF94FF4FA72114669
:1008E000022000F0D6F94FF4FA721146032000F00E
:1008F000D0F94FF4FA721146042000F0CAF94FF40F
:10090000FA721146052000F0C4F910BD10B54FF47D
:10091000FA721146012000F0BCF94FF4FA72114648
:10092000022000F0B6F94FF4FA721146032000F0ED
:10093000B0F94FF4FA721146042000F0AAF94FF40E
:10094000FA721146052000F0A4F910BD10B54FF45D
:10095000FA721146012000F09CF94FF4FA72114628
:10096000022000F096F94FF4FA721146032000F0CD
:1009700090F94FF4FA721146042000F08AF94FF40E
:10098000FA721146052000F084F910BD10B54FF43D
:10099000FA721146012000F07CF94FF4FA72114608
:1009A000022000F076F94FF4FA721146032000F0AD
:1009B00070F94FF4FA721146042000F06AF94FF40E
:1009C000FA721146052000F064F910BD10B54FF41D
:1009D000FA721146012000F05CF94FF4FA721146E8
:1009E000022000F056F94FF4FA721146032000F08D
:1009F00050F94FF4FA721146042000F04AF94FF40E
:100A0000FA721146052000F044F910BD10B54FF4FC
:100A1000FA721146012000F03CF94FF4FA721146C7
:100A2000022000F036F94FF4FA721146032000F06C
:100A300030F94FF4FA721146042000F02AF94FF40D
:100A4000FA721146052000F024F910BD10B54FF4DC
:100A5000FA721146012000F01CF94FF4FA721146A7
:100A6000022000F016F94FF4FA721146032000F04C
:100A700010F94FF4FA721146042000F00AF94FF40D
:100A8000FA721146052000F004F910BD10B54FF4BC
:100A9000FA721146012000F0FCF84FF4FA72114688
:100AA000022000F0F6F84FF4FA721146032000F02D
:100AB000F0F84FF4FA721146042000F0EAF84FF40F
:100AC000FA721146052000F0E4F810BD10B5FFF7EA
:100AD000BDFEFFF7FBFEFFF7D9FE4FF4967000F066
:100AE0004AFCFFF753FFFFF791FFFFF76FFF4FF44B
:100AF000967000F040FC10BD10B54FF4FA7211462C
:100B0000012000F0C6F84FF4FA721146022000F0FE
:100B1000C0F84FF4FA721146032000F0BAF84FF40F
:100B2000FA721146042000F0B4F84FF4FA7211463C
:100B3000052000F0AEF810BD10B54FF4FA72114662
:100B4000012000F0A6F84FF4FA721146022000F0DE
:100B5000A0F84FF4FA721146032000F09AF84FF40F
:100B6000FA721146042000F094F84FF4FA7211461C
:100B7000052000F08EF810BD10B54FF4FA72114642
:100B8000012000F086F84FF4FA721146022000F0BE
:100B900080F84FF4FA721146032000F07AF84FF40F
:100BA000FA721146042000F074F84FF4FA721146FC
:100BB000052000F06EF810BD10B54FF4FA72114622
:100BC000012000F066F84FF4FA721146022000F09E
:100BD00060F84FF4FA721146032000F05AF84FF40F
:100BE000FA721146042000F054F84FF4FA721146DC
:100BF000052000F04EF810BD10B54FF4FA72114602
:100C0000012000F046F84FF4FA721146022000F07D
:100C100040F84FF4FA721146032000F03AF84FF40E
:100C2000FA721146042000F034F84FF4FA721146BB
:100C3000052000F02EF810BD01460022022004E03D
:100C40000B5C13449AB2431CD8B2CB789B1C8342F2
:100C5000F6DCD3439AB2D0B270477CB504460D4659
:100C600055208DF801008DF800008DF80240042019
:100C70008DF803000D208DF804008DF805506846AE
:100C8000FFF7DAFF8DF806000721684600F0B3FC95
:100C90007CBDFEB506460C461546002C00DA002445
:100CA000B4F57A7F01DD4FF47A7455208DF8010098
:100CB0008DF800008DF8026007208DF803000120F8
:100CC0008DF80400E0B28DF80500200A8DF80600CA
:100CD000E8B28DF8070028128DF808006846FFF783
:100CE000ABFF8DF809000A21684600F084FCFEBDC8
:100CF0001CB5044655208DF801008DF800008DF8D4
:100D0000024004208DF803001F208DF8040000200D
:100D10008DF805006846FFF78FFF8DF80600072164
:100D2000684600F068FC1CBD1CB5044655208DF8D3
:100D300001008DF800008DF8024004208DF80300BA
:100D40001F208DF8040001208DF805006846FFF78C
:100D500073FF8DF806000721684600F04CFC1CBDAF
:100D600070B54CF2503604E0761E002E01DA1F48B2
:100D700070BD00F0BBFC0028F6D01D48FFF75CFFFB
:100D80001B49C978891C1A4A515C884202D06FF409
:100D90000060EDE7164804791C2C06D1407914490F
:100DA000897940EA01252846E2E700BF00BF00201C
:100DB000DEE77CB5044655208DF801008DF8000073
:100DC0008DF8024003208DF803001C208DF80400EC
:100DD0006846FFF731FF8DF805000621684600F0F0
:100DE0000AFCFFF7BDFF054628467CBD00F8FFFF63
:100DF0005C00002008B50121082001F07BF90220E9
:100E0000ADF8000048208DF8030003208DF80200A3
:100E10006946524800F0B2FE0120ADF800001020F3
:100E20008DF8030003208DF8020069464B4800F05E
:100E3000A5FE0221494800F050FF08BD7FB50546D8
:100E40000C460121022001F062F9ADF80850ADF81E
:100E500004400020ADF80A00ADF8060001A94048A2
:100E600001F080FD1D208DF8000000208DF80100AC
:100E700003208DF8020001208DF80300684601F080
:100E8000A6FB4FF4A06001F09DFB7FBD10B50121D2
:100E9000334802F08CFB30B10121314802F098FB5D
:100EA00001203049087010BD10B501202E4908609E
:100EB0000F2000F03CFA00202C49C1F8800110BD41
:100EC0002DE9F0470024FFF7EFFF254802F05DFB16
:100ED00004460021224802F035FB204602F0C5FC02
:100EE00007464FF03332224B02F0D2FC054602F0A7
:100EF0008BFC81464846BDE8F08710B500240020F1
:100F000018490870FFF7D0FF00BF17487C38006809
:100F10000028FAD001221146114802F09AF8012166
:100F20000F4802F07BF800BF0F487C3800680028AB
:100F3000FAD1002201210A4802F08BF8002108486A
:100F400002F06CF807480078012801D1094C02E052
:100F5000FFF7B6FF0446204610BD0000000C01401C
:100F6000000400401C0000208081214200802142BA
:100F70003333FB3F0000C8431CB50121102001F0B2
:100F8000B9F82020ADF8040048208DF807000320B0
:100F90008DF8060001A9514800F0F0FD1020ADF8D1
:100FA00004008DF8070003208DF8060001A94B48C6
:100FB00000F0E4FD2021494800F08FFE1E208DF84E
:100FC000000000208DF8010003208DF802000120B0
:100FD0008DF80300684601F0FAFA4FF4A06001F0C2
:100FE000F1FA1CBD3EB505460C460121042001F076
:100FF0008EF8ADF80450ADF800400020ADF80600C2
:10100000ADF802006946364801F0ACFC3EBD10B5B3
:101010000121334802F0CBFA30B10121304802F00F
:10102000D7FA01202F49087010BD10B501202E49B4
:1010300008600F2000F07BF900202C49C1F89001D6
:1010400010BD2DE9F0470024FFF7EFFF244802F020
:101050009CFA04460021224802F074FA204602F06D
:1010600004FC07464FF03332214B02F011FC0546D9
:1010700002F0CAFB81464846BDE8F08710B500245F
:10108000002018490870FFF7D0FF00BF16487C38D1
:1010900000680028FAD001221146114801F0D9FF5A
:1010A00001210F4801F0BAFF00BF0F487C380068EB
:1010B0000028FAD100220121094801F0CAFF0021CD
:1010C000074801F0ABFF07480078012801D1094C1F
:1010D00002E0FFF7B6FF0446204610BD00100140B5
:1010E000000800402400002090012242000022421B
:1010F0003333FB3F0000C8437FB505460C46012152
:10110000084601F004F8ADF80850ADF8044000209E
:10111000ADF80A00ADF8060001A94FF0804001F0DB
:1011200021FC01221146900701F093FF1C208DF84D
:10113000000000208DF8010003208DF8020001203E
:101140008DF80300684601F042FA0121880701F09A
:1011500065FF7FBD10B50121880702F028FA40B174
:1011600004480078401C034908700121880702F0F8
:101170002FFA10BD2C00002008B50121042000F03A
:10118000B9FF0220ADF8000048208DF803000320CD
:101190008DF802006946524800F0F0FC0120ADF8DD
:1011A000000010208DF8030003208DF8020069462E
:1011B0004B4800F0E3FC0221494800F08EFD08BDD9
:1011C0007FB505460C460121082000F0A0FFADF8D0
:1011D0000850ADF804400020ADF80A00ADF8060054
:1011E00001A9404801F0BEFB32208DF8000000202C
:1011F0008DF8010003208DF8020001208DF8030016
:10120000684601F0E4F94FF4A06001F0DBF97FBD1E
:1012100010B50121334802F0CAF930B1012131483B
:1012200002F0D6F901203049087010BD10B5012038
:101230002E4908600F2000F07AF800202C49C1F8F0
:10124000800110BD2DE9F0470024FFF7EFFF25488E
:1012500002F09BF904460021224802F073F920466F
:1012600002F003FB07464FF03332224B02F010FB33
:10127000054602F0C9FA81464846BDE8F08710B538
:101280000024002018490870FFF7D0FF00BF17485E
:101290007C3800680028FAD001221146114801F07C
:1012A000D8FE01210F4801F0B9FE00BF0F487C387D
:1012B00000680028FAD1002201210A4801F0C9FE85
:1012C0000021084801F0AAFE07480078012801D152
:1012D000094C02E0FFF7B6FF0446204610BD0000AF
:1012E00000080140000C0040300000208001214235
:1012F000000021423333FB3F0000C84310B56FF0BC
:10130000040001F0AEF92E4800682E49B0FBF1F060
:101310002D4908700846007800EB4001C1EBC01071
:101320004FF6FF7101EAC0002849088010BD014650
:10133000254A12784A434FF0E0235A6100229A610D
:101340001A46126942F001021A6100BF4FF0E02212
:10135000106900F001021AB100F48032002AF5D0C1
:101360004FF0E022126922F001024FF0E0231A61EF
:1013700000229A6170470146144A12884A434FF08E
:10138000E0235A6100229A611A46126942F0010272
:101390001A6100BF4FF0E022106900F001021AB19B
:1013A00000F48032002AF5D04FF0E022126922F0DA
:1013B00001024FF0E0231A6100229A617047000099
:1013C0000400002000127A00380000203A000020BB
:1013D000014600BF704700BF564A128802F0400223
:1013E000002AF9D0C2B2534B1B1D1A80704710B5AA
:1013F00086B00446012144F2040000F07BFE4FF465
:101400000070ADF8140003208DF8160018208DF838
:10141000170005A9484800F0B1FB4FF48060ADF813
:10142000140004208DF8170005A9434800F0A6FB1E
:1014300025208DF8000003208DF801008DF80200B2
:1014400001208DF80300684601F0C1F801940020E6
:10145000ADF80800ADF80A00ADF80C00ADF81000CA
:101460000C20ADF80E0001A9324800F0EAFE01227E
:1014700040F225512F4800F07CFF01212D4800F05B
:101480006CFF06B010BD10B540F22551294801F09F
:1014900055F818B1274800F0D1FFC4B2412C10D143
:1014A0002648007868B92648007850B9FFF7CEF989
:1014B0000020224908702249087022A002F08CF80E
:1014C00037E0422C10D11D48007868B91C480078DC
:1014D00050B9FFF7DBF90020184908701849087067
:1014E00019A002F079F824E0432C10D113480078B9
:1014F00068B91348007850B9FFF7E8F900200F49A0
:1015000008700F49087011A002F066F811E0442C31
:101510000FD10A48007860B90948007848B9FFF748
:10152000F5F90020054908700549087008A002F087
:1015300053F810BD003801400008014001000020B0
:1015400002000020410D0A00420D0A00430D0A006E
:10155000440D0A0010B586B004460121082000F0B1
:10156000C9FD0121480400F0D2FD664800F026FEC6
:101570000420ADF8140003208DF8160018208DF813
:10158000170005A9604800F0F9FA0820ADF814002A
:1015900004208DF8170005A95B4800F0EFFA26201B
:1015A0008DF8000002208DF8010003208DF8020064
:1015B00001208DF80300684601F009F8019400202D
:1015C000ADF80800ADF80A00ADF80C00ADF8100059
:1015D0000C20ADF80E0001A94A4800F032FE0122AD
:1015E00040F22551474800F0C4FE0121454800F073
:1015F000B4FE06B010BD70B504460D460BE000BF4A
:101600004048008800F040000028F9D014F8011B81
:101610003C4800F00FFF2800A5F10101CDB2EED14A
:1016200070BD10B540F22551364800F087FF002804
:101630005BD0344800F002FFC4B234480078C8B927
:10164000552C10D132480078401C314908700846AA
:10165000007802280ED10020087001202B49087064
:101660002C49087006E000202849087029490870B4
:101670002749087025480078B8B3274825490978D4
:10168000445424480078032813D123482149097879
:10169000405C2249087008460078032803DB0846AE
:1016A0000078072805DD03201C4908700020174931
:1016B000087018480078401C1649087008460178E0
:1016C00016480078C01C81420FD11548007848B9EF
:1016D0000120134908700F480278921C0E491148E6
:1016E00001F0A5FF00200949087010BD0C480078E2
:1016F000012804D100200A49087001207047002009
:10170000FCE70000004400400008014043000020C6
:1017100044000020460000206C000020450000200E
:10172000420000205C00002010B586B00446012174
:10173000082000F0DFFC0121880400F0E8FC534899
:1017400000F03CFD4FF48060ADF8140003208DF8EC
:10175000160018208DF8170005A94D4800F00EFA64
:101760004FF40060ADF8140004208DF8170005A9AF
:10177000474800F003FA27208DF8000003208DF879
:1017800001008DF8020001208DF80300684600F08A
:101790001EFF01940020ADF80800ADF80A00ADF876
:1017A0000C00ADF810000C20ADF80E0001A9374870
:1017B00000F047FD012240F22551344800F0D9FDE8
:1017C0000121324800F0C9FD06B010BD70B50446D5
:1017D000204601F00DFFC5B20BE000BF2B4800888A
:1017E00000F040000028F9D014F8011B274800F051
:1017F00021FE2800A5F10101CDB2EED170BD10B5DA
:1018000040F22551214800F099FE18B11F4800F020
:1018100015FEC4B2412C08D100201E4908701E4993
:1018200008701EA0FFF7D2FF2EE0422C09D1002045
:10183000184908700120184908701CA0FFF7C6FF5E
:1018400022E0432C08D10120124908701249087087
:101850001AA0FFF7BBFF17E0442C09D101200D4966
:10186000087000200C49087018A0FFF7AFFF0BE0CC
:101870001AA0FFF7ABFF1EA0FFF7A8FF0348001D4B
:10188000048023A0FFF7A2FF10BD00000048004025
:10189000000C014001000020020000200D0A5374DA
:1018A000617274203120210D0A0000000D0A53746A
:1018B000617274203220210D0A0000000D0A537459
:1018C000617274203320210D0A0000000D0A537448
:1018D000617274203420210D0A0000000D0A457247
:1018E000726F72206D65737361676520210D0A0048
:1018F0000D0A546865206D65737361676520796FA3
:10190000752073656E74206973203A200000000012
:101910000D0A000010B586B004460121C80400F08D
:10192000F6FB0121112000F0E5FB504800F046FCD9
:101930004FF48060ADF8140003208DF816001820D5
:101940008DF8170005A94A4800F018F94FF4006017
:10195000ADF8140004208DF8170005A9444800F0E4
:101960000DF901940020ADF80800ADF80A00ADF8BB
:101970000C00ADF810000C20ADF80E0034208DF8EE
:10198000000004208DF8010003208DF802000120E2
:101990008DF80300684600F01AFE01A9334800F0F4
:1019A00050FC012240F22551304800F0E2FC0121B8
:1019B0002E4800F0D2FC40212C4800F0B6FD06B0C5
:1019C00010BD70B50446204601F012FEC5B20BE012
:1019D00000BF2648008800F040000028F9D014F825
:1019E000011B224800F026FD2800A5F10101CDB21F
:1019F000EED170BD10B540F225511C4800F09EFD9F
:101A000018B11A4800F01AFDC4B2312C09D1194896
:101A1000007830B918480078012802D1FEF7B6FFE7
:101A200022E0322C09D11348007830B912480078EE
:101A3000012802D1FEF7CAFF16E0332C09D10D4868
:101A4000007830B90C480078012802D1FEF7DEFF9B
:101A50000AE0342C08D10748007828B906480078F5
:101A6000012801D1FEF7F2FF10BD0000004C00403C
:101A700000100140010000200200002009488047BA
:101A800009480047FEE7FEE7FEE7FEE7FEE7FEE760
:101A9000FEE7FEE7FEE7FEE704480549054A064B78
:101AA000704700008F04000831010008E0000020AA
:101AB000E0060020E0020020E002002010B504460D
:101AC000CC48844208D10121042000F02DFB0021E4
:101AD000042000F029FB46E0C748844208D10121D8
:101AE000082000F021FB0021082000F01DFB3AE057
:101AF000C248844208D10121102000F015FB0021CA
:101B0000102000F011FB2EE0BD48844208D10121D5
:101B1000202000F009FB0021202000F005FB22E03E
:101B2000B848844208D10121402000F0FDFA00218C
:101B3000402000F0F9FA16E0B348844208D10121B0
:101B4000802000F0F1FA0021802000F0EDFA0AE098
:101B5000AE48844207D10121801500F0E5FA00214A
:101B6000A01500F0E1FA10BD10B50121084600F003
:101B7000DBFA0021012000F0D7FA10BD2DE9F04179
:101B8000024600250026002000230024002791F8AB
:101B900003C00CF00F0591F803C00CF0100CBCF161
:101BA000000F03D091F802C04CEA050591F800C07F
:101BB000BCF1000F31D0146800202BE04FF0010C75
:101BC0000CFA00F3B1F800C00CEA03069E4220D1E3
:101BD00083004FF00F0C0CFA03F7BC4305FA03FC2B
:101BE0004CEA040491F803C0BCF1280F06D14FF071
:101BF000010C0CFA00FCC2F814C00AE091F803C012
:101C0000BCF1480F05D14FF0010C0CFA00FCC2F8F2
:101C100010C0401C0828D1D31460B1F800C0BCF13A
:101C2000FF0F34DD546800202EE000F1080C4FF067
:101C3000010808FA0CF3B1F800C00CEA03069E4252
:101C400021D183004FF00F0C0CFA03F7BC4305FAC7
:101C500003FC4CEA040491F803C0BCF1280F05D141
:101C600000F1080C08FA0CF8C2F8148091F803C0CF
:101C7000BCF1480F07D100F1080C4FF0010808FA39
:101C80000CF8C2F81080401C0828CED35460BDE880
:101C9000F0814FF6FF710180022181700421C17033
:101CA00070470246002093680B400BB1012000E012
:101CB000002070470146886880B2704702460020C5
:101CC000D3680B400BB1012000E0002070470146B3
:101CD000C86880B2704701617047416170470AB1BE
:101CE000016100E041617047C16070474FF480328C
:101CF0000A4382618161826182698269704702461A
:101D00000020434B18684FF68073184040EA0210D9
:101D100008433F4B186070473E49C8617047F0B5B3
:101D20000A46002300240021002500F00046B6F1F9
:101D3000004F02D1364EF16901E0354E7168C0F3B3
:101D4000034583B200F44016B6F5401F08D121F0D8
:101D500070612F4E766826F070662D4F7E6012E01F
:101D600000F48016B6F5801F06D1032606FA05F4A6
:101D7000A14341F0706106E0460D360103FA06F614
:101D8000B14341F0706122B1460D360103FA06F607
:101D9000314300F00046B6F1004F02D11C4EF16114
:101DA00001E01B4E7160F0BD30B500228B071C0FA7
:101DB0000F2303FA04F2164B08338C1053F8243027
:101DC0009343134C08348D1044F8253023468C106F
:101DD00053F824308C07240F00FA04F423430C4CEE
:101DE00008348D1044F8253030BD0A49DC310860D4
:101DF0007047000000080140000C01400010014045
:101E00000014014000180140001C01400020014066
:101E10000000014000002042DF48006840F001005F
:101E2000DD49086008464068DC490840DA494860F6
:101E300008460068DA490840D74908600846006843
:101E400020F4802008600846406820F4FE004860C6
:101E50004FF41F0088607047CF49096821F4803132
:101E6000CD4A11601146096821F480211160B0F556
:101E7000803F03D0B0F5802F0ED106E0C649096837
:101E800041F48031C44A116007E0C349096841F454
:101E9000A021C14A116000E000BF00BF704710B52B
:101EA00001460022002300204A11012A02D1BA4C27
:101EB000236806E0022A02D1B74C236A01E0B64C3F
:101EC000636A01F01F02012494401C400CB1012000
:101ED00000E0002010BD38B500200090002400254F
:101EE00000BF3120FFF7DBFF05460098401C009043
:101EF0000098B0F5A06F01D0002DF2D03120FFF78F
:101F0000CEFF08B1012400E00024204638BD014680
:101F10000020A14A106820F0F80040EAC1001060DB
:101F20007047A04908607047024600209A4B5868E5
:101F300020F47C1042EA01031843974B5860704725
:101F400098490866704701460020934A506820F07F
:101F500003000843506070478F48406800F00C0051
:101F60007047014600208C4A506820F0F00008437A
:101F70005060704701460020874A506820F4E060B6
:101F800008435060704701460020834A506820F49F
:101F9000605040EAC1005060704729B17E4A527AD1
:101FA00002437D4B5A7204E07B4A527A82437A4B59
:101FB0005A7270477B49D83108607047014600204B
:101FC000754A506820F44040084350607047002133
:101FD000714A20321170704A82F82010012802D014
:101FE00004280AD104E001216B4A2032117005E077
:101FF0000521694A2032117000E000BF00BF704720
:102000006949086070476449096A0143624A11627C
:102010007047654944390860704730B50021002297
:10202000002400235C4D6D6805F00C0121B10429EA
:1020300005D0082923D105E05C4D056022E05B4D09
:1020400005601FE0544D6D6805F47012524D6D68C7
:1020500005F48034022505EB92421CB9544D5543DA
:1020600005600BE04C4D6D6805F400351DB1504D19
:102070005543056002E04D4D5543056002E04B4D70
:10208000056000BF00BF444D6D6805F0F00109090F
:10209000484D6B5C0568DD4045603F4D6D6805F45B
:1020A000E061090A434D6B5C4568DD4085603A4D4F
:1020B0006D6805F46051C90A3E4D6B5C4568DD40B2
:1020C000C560354D6D6805F44041890B3A4D6B5C38
:1020D000C568B5FBF3F5056130BD29B12E4A5269DB
:1020E00002432D4B5A6104E02B4A526982432A4B2A
:1020F0005A61704729B1284A92690243264B9A6176
:1021000004E0254A92698243234B9A61704729B1C2
:10211000214AD2690243204BDA6104E01E4AD269A7
:1021200082431D4BDA61704729B11B4AD2680243D2
:10213000194BDA6004E0184AD2688243164BDA6021
:10214000704729B1144A12690243134B1A6104E023
:10215000114A12698243104B1A6170471249403983
:10216000086070470F49C86470470B49C8717047D1
:102170000948406A40F0807007494862704701464C
:102180000020054A92680A400AB1012000E00020C0
:102190007047014988727047001002400000FFF844
:1021A000FFFFF6FE000042428004424200127A0025
:1021B00000093D00470000205700002010B50446EC
:1021C000FB48844209D101218803FFF7ADFF0021BC
:1021D0004FF48040FFF7A8FF32E0F648844209D16F
:1021E00001214804FFF7ADFF00214FF40030FFF755
:1021F000A8FF25E0F048844209D101218804FFF7B7
:10220000A0FF00214FF48020FFF79BFF18E0EB4870
:10221000844209D10121C804FFF793FF00214FF444
:102220000020FFF78EFF0BE0E548844208D1012132
:102230000805FFF786FF00214FF48010FFF781FFAC
:1022400010BD2DE9F04786B005460E460024A24693
:1022500000BFA1460027B08900B100BF2F462C8ADD
:102260004CF6FF700440F08804432C82AC894EF693
:10227000F3100440B088318908437189084304434E
:10228000AC81AC8A4FF6FF400440B0890443AC8275
:1022900001A8FFF7C2FEC648874202D1DDF810A0B0
:1022A00001E0DDF80CA0A88900F4004040B10AEB81
:1022B000CA0000EB0A1031684900B0FBF1F807E0F2
:1022C0000AEBCA0000EB0A1031688900B0FBF1F894
:1022D0006420B8FBF0F004012009642101FB10899F
:1022E000A88900F4004040B1322000EBC900B0FBE7
:1022F000F1F000F00700044308E0322000EB091081
:102300006421B0FBF1F000F00F0004432C8106B013
:10231000BDE8F0874FF41651016000218180C18033
:1023200001810C21418100218181704710B5024655
:102330000020108A4FF2FF0318400B884C8823437B
:102340008C882343CC8823431843108210BD00217E
:10235000018041808180C180704721B1828942F42F
:102360000052828104E082894DF6FF731A40828117
:102370007047F0B50346002400260025002040F6F3
:102380006A17B94200D100BF1846C1F3421401F0E8
:102390001F06012707FA06F5012C01D10C3004E0D5
:1023A000022C01D1103000E014301AB107682F431D
:1023B000076002E00768AF430760F0BD1AB1838A87
:1023C0000B43838202E0838A8B4383827047028AB5
:1023D0004FF6F0731A400282028A0A430282704763
:1023E00082894FF2FF731A40828182890A43828177
:1023F000704721B1828942F00202828104E0828921
:102400004FF6FD731A4082817047028A4FF6DF73E0
:102410001A400282028A0A430282704721B1028A6C
:1024200042F48042028204E0028A4BF6FF731A40B3
:1024300002827047C1F30802828070470146888893
:10244000C0F308007047818941F001018181704724
:10245000028BD2B20283028B42EA012202837047CE
:10246000028B02F47F420283028B0A43028370478D
:1024700021B1828A42F02002828204E0828A4FF6F1
:10248000DF731A408282704721B1828A42F01002C3
:10249000828204E0828A4FF6EF731A40828270478C
:1024A00021B1828A42F00802828204E0828A4FF6D9
:1024B000F7731A408282704721B1828942F4004248
:1024C000828103E08289C2F30E028281704721B1CA
:1024D000828A42F40062828204E0828A4FF2FF73B1
:1024E0001A4082827047828A4FF6FB731A408282BA
:1024F000828A0A438282704721B1828A42F00202B4
:10250000828204E0828A4FF6FD731A40828270470D
:1025100002460020B1F5007F00D100BF13880B40B8
:102520000BB1012000E00020704701F40072B2F509
:10253000007F00D100BFCA430280704770B50246D9
:10254000002400230025002040F66A16B14200D185
:1025500000BFC1F3421501F01F03012606FA03F381
:10256000012D02D19689334006E0022D02D1168A50
:10257000334001E0968A33400C12012606FA04F437
:102580001688344013B10CB1012000E0002070BD6A
:1025900010B50022002340F66A14A14200D100BF0A
:1025A0000A1201249440A3B2DC43048010BD000051
:1025B000003801400044004000480040004C00400A
:1025C0000050004031490143314A1160704770B5F5
:1025D000002100230F22C47804B32D4C246804F496
:1025E000E064C4F5E064210AC1F10403CA40447800
:1025F00004FA03F18478144021430901254C06783C
:10260000A155047804F01F050124AC4005786D1134
:10261000AD0005F1E025C5F8004109E0047804F0BB
:102620001F050124AC401C4D0678761145F8264064
:1026300070BD1A4A0A400243154B1B1F1A607047AF
:1026400039B1134A121D12680243114B1B1D1A6047
:1026500006E00F4A121D126882430D4B1B1D1A60C3
:102660007047042808D14FF0E021096941F00401C6
:102670004FF0E022116107E04FF0E021096921F0FD
:1026800004014FF0E0221161704700000000FA05DC
:102690000CED00E000E400E080E100E080FFFF1FBF
:1026A000002044490860091D0860091D0860091DD3
:1026B000086041483F4914310860704700213D4996
:1026C0008279002A3AD00A46126803689A430B4678
:1026D0001A600A1D126803689A430B1D1A6002797A
:1026E00011440A6803681A430A60324A08321268C1
:1026F00003689A432F4B08331A601A1D1268036847
:102700009A432C4B0C331A604279102A0ED11A1FAF
:10271000126803681A43274B08331A601A1D12689F
:1027200003681A43234B0C331A600DE021494279A8
:1027300011440A6803681A430A6005E002791144EB
:102740000A6803689A430A607047002101600171BA
:102750000C214171002181717047164910310968BF
:102760000143144A10321160704701460020114A9B
:10277000143212680A400AB1012000E000207047BC
:102780000C49143108607047014600200022094BB3
:102790001B6803EA0102074B14331B680B4013B19B
:1027A0000AB1012000E0002070470249143108609E
:1027B0007047000000040140FFFF0F0010B5044601
:1027C000FE48844208D10121C014FFF7ADFC00216E
:1027D000E014FFF7A9FCC4E0B4F1804F08D1012157
:1027E0000846FFF7AEFC00210120FFF7AAFCB8E085
:1027F000F348844208D101210220FFF7A2FC002106
:102800000220FFF79EFCACE0EE48844208D1012193
:102810000420FFF796FC00210420FFF792FCA0E0C3
:10282000E948844208D101210820FFF78AFC0021F1
:102830000820FFF786FC94E0E448844208D1012197
:102840001020FFF77EFC00211020FFF77AFC88E0C3
:10285000DF48844208D101212020FFF772FC0021CB
:102860002020FFF76EFC7CE0DA48844208D1012189
:102870004014FFF759FC00216014FFF755FC70E08D
:10288000D548844209D10121C804FFF74DFC00213D
:102890004FF40020FFF748FC63E0D048844209D1A0
:1028A00001210805FFF740FC00214FF48010FFF7DD
:1028B0003BFC56E0CA48844209D101214805FFF794
:1028C00033FC00214FF40010FFF72EFC49E0C5480F
:1028D000844208D101214020FFF733FC0021402031
:1028E000FFF72FFC3DE0C048844208D10121802041
:1028F000FFF727FC00218020FFF723FC31E0BB48D5
:10290000844208D101218015FFF71BFC0021A0158E
:10291000FFF717FC25E0B648844209D101210804DD
:10292000FFF702FC00214FF48030FFF7FDFB18E0B9
:10293000B048844209D101214804FFF7F5FB00218A
:102940004FF40030FFF7F0FB0BE0AB48844208D1B6
:1029500001218804FFF7E8FB00214FF48020FFF7F6
:10296000E3FB10BD00220288944B98420ED0994B95
:1029700098420BD0B0F1804F08D0914B984205D0CF
:10298000904B984202D0904B984204D14FF68F73EF
:102990001A404B881A438D4B984207D08C4B984273
:1029A00004D04FF6FF431A40CB881A4302808B882D
:1029B00083850B880385814B98420BD0854B9842C9
:1029C00008D08B4B984205D08A4B984202D08A4B54
:1029D000984201D10B7A038601238382704770B538
:1029E000002400220023058C4FF6FE763540058436
:1029F000028C8388048B4FF68F752C40B51E2C40BB
:102A00000D882C43751E2A400D892A434D882A4380
:102A10006A4DA8420BD06F4DA84208D0744DA84211
:102A200005D0744DA84202D0734DA84213D14FF681
:102A3000F7752A404D892A434FF6FB752A408D8849
:102A40002A434FF6FF652B404FF6FF552B408D89EB
:102A50002B43CD892B4383800483CD8885860284D4
:102A600070BD70B5002400220023058C4FF6EF7670
:102A700035400584028C8388048B48F6FF752C4012
:102A80004FF6FF452C400D884FF6FF7606EA0525E8
:102A90002C434FF6DF752A400D8906EA05152A43B7
:102AA0004D8806EA05152A43444DA84202D0494DF7
:102AB000A8421DD14FF67F752A404D894FF6FF760B
:102AC00006EA05152A434FF6BF752A408D8806EAA7
:102AD00005152A434FF6FF352B404FF2FF752B406B
:102AE0008D8906EA85052B43CD8906EA85052B43AA
:102AF00083800483CD880587028470BD70B500246F
:102B000000220023058C4FF6FF6635400584028CB9
:102B10008388848B4FF68F752C404FF6FC752C40C4
:102B20000D882C434FF6FF552A400D894FF6FF764E
:102B300006EA05252A434D8806EA05252A431F4D46
:102B4000A84202D0234DA8421DD14FF2FF752A4062
:102B50004D894FF6FF7606EA05252A434FF6FF35E5
:102B60002A408D8806EA05252A434EF6FF752B403C
:102B70004DF6FF752B408D8906EA05152B43CD894F
:102B800006EA05152B4383808483CD8885870284DC
:102B900070BD70B5002200230024058C4EF6FF7630
:102BA00035400584038C8488828B48F6FF752A4063
:102BB0004FF6FF452A400D8820E00000002C014020
:102BC0000004004000080040000C004000100040DD
:102BD0000014004000340140004C0140005001400E
:102BE0000054014000180040001C0040002000403C
:102BF0000040014000440140004801404FF6FF768C
:102C000006EA05252A434DF6FF752B400D8906EA95
:102C100005352B434D8806EA05352B43FA4DA8426E
:102C200002D0FA4DA84208D14BF6FF752C408D8991
:102C30004FF6FF7606EA85152C4384808283CD8883
:102C4000A0F84050038470BD828B4FF2FF331A40CE
:102C50008283828B4FF6FF7303EA01231A43828338
:102C60007047F0B50C461546002200210026078C5F
:102C70004EF6FF7C07EA0C070784828B018C4FF627
:102C8000FF7707EA043640F6FF473A404FF6FF77F2
:102C900007EA05273A434FF6FF7707EA03373A4337
:102CA000D94FB8420ED0D94FB8420BD0B0F1804FB7
:102CB00008D0D74FB84205D0D64FB84202D0D64F31
:102CC000B84206D14DF6FF77394046F48057394374
:102CD00005E047F6FF57394044F480573943828373
:102CE0000184F0BD828B4FF6F3731A408283828B8E
:102CF0000A4382837047F0B50C4615460022002136
:102D00000026078C4FF6FF6C07EA0C070784828BBE
:102D1000018C4FF6FF7707EA04264FF60C773A400E
:102D20004FF6FF7707EA03172F433A43B64FB842EF
:102D30000ED0B64FB8420BD0B0F1804F08D0B44F90
:102D4000B84205D0B34FB84202D0B34FB84206D113
:102D50004FF6FF57394046F48077394305E04FF28C
:102D6000FF57394044F48077394382830184F0BDB2
:102D7000028B4FF2FF331A400283028B4FF6FF7330
:102D800003EA01231A4302837047F0B50C46154647
:102D9000002200210026078C4FF6EF7C07EA0C0783
:102DA0000784028B018C4FF6FF7707EA041640F682
:102DB000FF473A404FF6FF7707EA03373A434FF6AB
:102DC000FF7707EA05273A438F4FB8420ED08F4F5F
:102DD000B8420BD0B0F1804F08D08D4FB84205D02B
:102DE0008C4FB84202D08C4FB84206D14FF6DF77F5
:102DF000394046F01007394305E04FF65F77394018
:102E000044F01007394302830184F0BD028B4FF672
:102E1000F3731A400283028B0A4302837047F0B5B2
:102E20000C46154600220021068C4FF6FE773E40E8
:102E30000684028B018C4FF60C7632407E1C06EA2B
:102E400003162E433243704EB0420ED06F4EB04246
:102E50000BD0B0F1804F08D06D4EB04205D06D4E12
:102E6000B04202D06C4EB04206D14FF6FD763140F2
:102E700044F00106314305E04FF6F576314044F069
:102E80000106314302830184F0BD70B505460C464E
:102E90005D4885420ED05D4885420BD0B5F1804F2C
:102EA00008D05B48854205D05A48854202D05A482E
:102EB000854200D100E000BF208850B92389A28854
:102EC00061882846FFF7ABFFE1882846FFF79EFFA1
:102ED00025E0208804280AD12389A2886188284611
:102EE000FFF753FFE1882846FFF742FF17E02088ED
:102EF00008280AD12389A28861882846FFF7FBFEAB
:102F0000E1882846FFF7EEFE09E02389A288618860
:102F10002846FFF7A6FEE1882846FFF795FE70BD1C
:102F20002DE9F04105460C4600260127608808B9C6
:102F3000022600E00026A088012801D1022700E037
:102F400001272088A0B92389A28861882846FFF735
:102F500066FFE1882846FFF759FF23893A46314644
:102F60002846FFF712FFE1882846FFF701FF13E02C
:102F70002389A28861882846FFF707FFE188284651
:102F8000FFF7F6FE23893A4631462846FFF747FF0A
:102F9000E1882846FFF73AFFBDE8F0810A884B88B0
:102FA0001A438B881A43CB881A430B891A434B89DF
:102FB0001A438B891A43A0F8442070474FF6FF71DB
:102FC000818000210180C180418001727047002111
:102FD000018041808180C180018141818181C181E5
:102FE0007047002101804180012181800021C18042
:102FF000018170470021018041808180C180018171
:103000004181818170470000002C01400034014063
:103010000004004000080040000C004021B102887C
:1030200042F00102028004E002884FF6FE731A406B
:103030000280704731B1B0F8442042F40042A0F859
:10304000442005E0B0F84420C2F30E02A0F844206A
:1030500070471AB183890B43838102E083898B43D4
:10306000838170478182704741EA0203A0F84830AB
:1030700070471AB183890B43838102E083898B43B4
:103080008381704701894FF6F872114001817047C2
:103090000A46002101894FF68F73194011430181BF
:1030A000704730B504460D4629462046FFF7F0FF2D
:1030B000208940F00700208130BD2DE9F041044611
:1030C0000D4616461F46602D06D13B46012231466D
:1030D0002046FFF75AFE05E03B46012231462046D6
:1030E000FFF79DFE29462046FFF7D2FF208940F0DA
:1030F00007002081BDE8F08130B50C460021018930
:10310000C9B24FF6FF7505EA032515432543294348
:10311000018130BD2DE9F04105460E46174698461F
:10312000002443463A4631462846FFF7E5FF2C89FE
:103130004FF6F870044044F007044FF68F700440D7
:1031400044F070042C81BDE8F081F0B504460D46D2
:1031500016461F463B46324629462046FFF7CCFF1F
:10316000208940F480402081F0BD01858282704733
:103170000A46002101884FF68F73194011430180E0
:103180007047F0B50C4615461E460021002200236C
:103190000189028B038C4FF6F877394021434FF6B3
:1031A000FC473A4040F201173A434FF6DD773B4087
:1031B0004FF6FF7707EA06172F433B43018102834F
:1031C0000384F0BD0A460021018B4FF68F7319402E
:1031D0001143018370470A460021018B48F6FF73B3
:1031E00019404FF6FF7303EA022319430183704726
:1031F0000A460021818B4FF68F731940114381835A
:1032000070470A460021818B48F6FF7319404FF63C
:10321000FF7303EA022319438183704721B10288B7
:1032200042F08002028004E002884FF67F731A4069
:103230000280704721B1828842F00402828004E05B
:1032400082884FF6FB731A408280704721B18288D2
:1032500042F00802828004E082884FF6F7731A4039
:103260008280704721B1828842F00102828004E0AE
:1032700082884FF6FE731A40828070470A4600210A
:10328000018B4FF6F77319401143018370470A46CB
:103290000021018B4FF2FF7319404FF6FF7303EAD1
:1032A00002231943018370470A460021818B4FF6A0
:1032B000F77319401143818370470A460021818BBF
:1032C0004FF2FF7319404FF6FF7303EA02231943CD
:1032D000818370470A460021018B4FF6FB7319402A
:1032E0001143018370470A460021018B4FF6FF33DB
:1032F00019404FF6FF7303EA022319430183704715
:103300000A460021818B4FF6FB73194011438183DC
:1033100070470A460021818B4FF6FF3319404FF664
:10332000FF7303EA02231943818370470A46002191
:10333000018B4FF67F7319401143018370470A4692
:103340000021018BC1F30E014FF6FF7303EA022344
:103350001943018370470A460021818B4FF67F7322
:1033600019401143818370470A460021818BC1F3C4
:103370000E014FF6FF7303EA02231943818370475E
:103380000A460021018C4FF6FD7319401143018458
:1033900070470A460021018C4FF6F773194011431C
:1033A000018470470A460021018C4FF6DF731940F3
:1033B0004FF6FF7303EA02131943018470470A466C
:1033C0000021018C4FF67F7319404FF6FF7303EA1B
:1033D00002131943018470470A460021018C4FF6FD
:1033E000FF5319404FF6FF7303EA02231943018488
:1033F00070470A460021018C4FF2FF7319404FF6C7
:10340000FF7303EA02231943018470470A4600212F
:10341000018C4DF6FF7319404FF6FF7303EA023338
:1034200019430184704730B5002301248C40A3B2B6
:10343000048C9C430484048C02FA01F5ADB22C4345
:10344000048430BD30B5002304248C40A3B2048C26
:103450009C430484048C02FA01F5ADB22C4304842D
:1034600030BD70B5034600200024184618300125F1
:103470008D40ACB21D8CA5431D8409B1082909D12A
:1034800000EB6100056825F07005056005681543CF
:1034900005600EE00D1FC5F34E052844056825F4B0
:1034A000E045056005684FF6FF7606EA02263543DB
:1034B000056070BD21B1028842F00202028004E082
:1034C00002884FF6FD731A400280704721B10288CE
:1034D00042F00402028004E002884FF6FB731A40B7
:1034E0000280704721B1828842F08002828004E02D
:1034F00082884FF67F731A408280704702884FF6A9
:10350000F7731A40028002880A430280704782885B
:103510004FF68F731A40828082880A4382807047F8
:1035200002894FF6F8731A40028102890A43028128
:10353000704702894FF67F731A40028102890A435D
:10354000028170478184704781857047818670470A
:103550000187704781877047A0F840107047028844
:103560004FF6FF431A40028002880A4302807047E8
:103570000146888E70470146088F70470146888F44
:1035800070470146B1F8400070470146888C70478B
:103590000146088D704702460020138A0B400BB18C
:1035A000012000E000207047CA430282704730B516
:1035B0000246002000230024158A05EA01039589AC
:1035C00005EA010413B10CB1012000E0002030BD78
:1035D000CA430282704770470FB4044910B503AA6A
:1035E000029800F06DF810BC5DF814FB3C00002060
:1035F00010B5431C02E010F8011B71B18107FAD12C
:103600004FF0013202C88C1A8C4314EAC211F9D06F
:10361000C01A0A0603D0C01E10BDC01A10BD0A048D
:1036200001D0801E10BD0902FCD0401E10BD032A2F
:1036300040F2308010F0030C00F0158011F8013BCF
:10364000BCF1020F624498BF11F801CB00F8013BB6
:1036500038BF11F8013BA2F1040298BF00F801CB7A
:1036600038BF00F8013B11F0030300F03B80083A3B
:10367000C0F0088051F8043B083A51F804CBA0E8A8
:103680000810F5E7121D5CBF51F8043B40F8043BFD
:10369000AFF30080D20724BF11F8013B11F801CB32
:1036A00048BF11F8012B24BF00F8013B00F801CB03
:1036B00048BF00F8012B704770477047704770474C
:1036C000074B70B50D467B4400F043F8044628468E
:1036D00000F052F810B14FF0FF3070BD204670BDC1
:1036E0000DDDFFFF10B5203AC0F00B80B1E8185097
:1036F000203AA0E81850B1E81850A0E81850BFF4DC
:10370000F5AF5FEA027C24BFB1E81850A0E818507A
:1037100044BF18C918C0BDE810405FEA827C24BFCE
:1037200051F8043B40F8043B08BF7047D20728BF5C
:1037300031F8023B48BF11F8012B28BF20F8023BAB
:1037400048BF00F8012B704701694A1C02610878E4
:10375000704700B58FB0CDE90131002105910549D1
:103760007944CDE903101146684600F02EF80FB0F9
:1037700000BD0000E5FFFFFF007B00F08000704708
:10378000754600F03DF8AE4605006946534620F008
:103790000700854618B020B5FEF77EF9BDE8204049
:1037A0004FF000064FF000074FF000084FF0000BFD
:1037B00021F00701AC46ACE8C009ACE8C009ACE8B0
:1037C000C009ACE8C0098D4670472DE9F0410646B6
:1037D0000024D6E90170F5688046304603E0414692
:1037E000B847641C3046A8470028F8D12046BDE8F9
:1037F000F0810446AFF300802046FCF7E0FC0000B7
:10380000004870477C00002021F00042A2F1605285
:10381000B2F5801F01F0004328BFD2F17F6C0BD9B5
:103820005FEA001C43EAC20242EB507018BF7047C7
:1038300028BF20F001007047B2F5801FBCBF1846BA
:1038400070474FEA410C1CF5001F02D2084600F0F9
:10385000A3B970B500F0C6F800000089FFF7F6BF05
:103860004FF00040A0F580007047B0FA80F310FAE6
:1038700003F10AD0C3F11D0303F580634FEA415001
:103880004FEA035202EBD12170474FF0000070471E
:10389000DFF848C170B51CEA111E1EBF1CEA1315E3
:1038A0009EEA0C0F95EA0C0F00F06F8081EA03048A
:1038B00023EA4C134EEAD47E21EA4C1141F48011E4
:1038C00043F48013AE44A1FB024CA0FB0365AEF1B0
:1038D0007F7E361955EB0C05A1FB034C4CF1000320
:1038E000A0FB021C16EB0C06654153F100030942D4
:1038F00018BF46F0010613F4007F0BD14FEA0331E5
:103900004FEA0530340341EA155140EA16506FF092
:1039100003020AE04FEAC3214FEAC520F40241EA5C
:10392000555140EA56506FF0020202EB2E4201EB75
:10393000025585EACE710AD05FEA440C18BF24F024
:10394000004450F1000041F1000120EAD47040F23F
:10395000FE7C624500D270BDA84214BF4FF0804487
:103960004FF04044002E08BF0024BEF1806FA8BF76
:10397000A1F1C041BDE8704080F282804FF00000AC
:1039800001F1C04101F0004170479EEA0C0F0CEAC2
:10399000131518BF95EA0C0F06D04FF0000081EA0E
:1039A000030E0EF0004170BD00F01CF88900013ECE
:1039B00000F007B800F009B84FEA430C5FEA5C5C1E
:1039C00008D081EA030100F05BB84FEA410C5FEADE
:1039D0005C5CF6D14FF00000014970470000FF0722
:1039E0000000F87F0EF1020E2EF0030E5EF8046B5D
:1039F000364205D4012A43EB030515F5001F12D802
:103A0000012841EB010C1CF5001F0CD80ED14FEA28
:103A1000D17C15F5001F0CEB4C0C0CF1020C08BF0F
:103A20004CEBD37C04E04FF0080C01E04FEAD37C70
:103A30000CEB4C0526FA05F606F00706B6F1040C69
:103A400006D20EEB860CBDE870404CF0010C6047CE
:103A5000DFE80CF0090B02024FF000414FF00000CC
:103A6000A1F5002170BD19461046012851EB010453
:103A700018BFD4F5001484BF002001F0004170BDD0
:103A80000808A0F500114FEA31017047401058BFF7
:103A9000C0F14040491058BFC1F140418142EFF3AD
:103AA0000080704750EA010C00F113801CF5000FF4
:103AB00058BFBCF5000F01D48842704707D710F5F6
:103AC000000F58BF11F5000F15D488427047894286
:103AD00070471CF5000F04D5BCF5000FF7D58142E7
:103AE00070474FF0807C1CEB400F38BF1CEB410F40
:103AF00001D28142704710B500F008F892244900C5
:103B00004FF000504FF08051FFF7C0BF0EF1020E92
:103B10002EF0030E5EF8044B244204D44FEA410217
:103B2000B2F17F4F11D84FEA4003B3F17F4F0CD869
:103B30000ED14FEAD07CB2F17F4F0CEB4C0C0CF164
:103B4000020C08BF4CEBD17C04E04FF0080C01E004
:103B50004FEAD17C0CEB4C0324FA03F404F0070485
:103B6000B4F1040C06D20EEB840CBDE810404CF00E
:103B7000010C6047DFE80CF0070802024FF000403C
:103B8000A0F5800010BD0846420018BFD2F1807237
:103B900088BF00F0004010BDFF2141EAD050C005B1
:103BA000704751EA000C00F113801CF5000F58BF5C
:103BB000BCF5000F01D48142704707D711F5000F03
:103BC00058BF10F5000F15D48142704789427047E5
:103BD0001CF5000F04D5BCF5000FF7D588427047DF
:103BE0004FF0807C1CEB410F38BF1CEB400F01D223
:103BF0008842704780EA010081EA000180EA010002
:103C0000FFF779BF243C0008000000205C000000A2
:103C10006C010008803C00085C0000208406000065
:103C2000880100080000000000A24A040000000013
:103C3000000000000102030406070809010000005B
:103C40000000000000000000000000000000000074
:103C50000000000000000000000000000000000064
:103C60000000000000000000000200000000000151
:103C700002030401020304060708090204060800FF
:0400000508000131BD
:00000001FF
